S010000074657374737069692E737265639F
S11300000C9434000C943E000C943E000C943E007E
S11300100C943E000C943E000C943E000C943E0064
S11300200C943E000C943E000C943E000C943E0054
S11300300C943E000C943E000C943E000C943E0044
S11300400C943E000C943E000C943E000C943E0034
S11300500C943E000C943E000C943E000C943E0024
S11300600C943E000C943E0011241FBECFEFD8E048
S1130070DEBFCDBF0E9440000C9467000C940000CA
S11300800E944B0068E181E00E94520069E181E036
S11300900E945200FFCF8EE284B986E185B981E5E2
S11300A08CBD089595B121E030E002C0220F331FCA
S11300B08A95E2F7822F8095982395B96F736068CB
S11300C06EBD0DB407FEFDCF8EB525B90895F89425
S10500D0FFCF5C
S9030000FC
