:100000000C9434000C9449000C9449000C94490061
:100010000C9449000C9449000C9449000C9449003C
:100020000C9449000C9449000C9449000C9449002C
:100030000C9449000C9449000C9449000C9449001C
:100040000C9449000C9449000C9449000C9449000C
:100050000C9449000C9449000C9449000C944900FC
:100060000C9449000C94490011241FBECFEFD8E036
:10007000DEBFCDBF11E0A0E0B1E0ECEBF4E002C0E8
:1000800005900D92AA3FB107D9F70E944B000C943E
:100090005C020C9400000E9440010E948D0080E0F0
:1000A00091E00E9459018BE291E00E9459012FEFEB
:1000B00083ED90E3215080409040E1F700C00000C4
:1000C0000E94E40045EA66E081E00E94220147EDDB
:1000D00067E081E00E94220166E081E00E94D40096
:1000E000C82F80E691E00E9459018C2F0E946F0179
:1000F0008BEC91E00E94590167E081E00E94D400FE
:10010000C82F85E991E00E9459018C2F0E946F0150
:100110008BEC91E00E945901FFCF8FE284B987E018
:1001200085B98FE58CBD08958EBD00000DB407FE26
:10013000FDCF8EB50895DF92EF92FF920F931F933C
:10014000CF93DF938A01D22E6F736068823021F4DF
:1001500091E0921708F4606495B121E030E07901F4
:1001600002C0EE0CFF1C8A95E2F78E2D8095892344
:1001700085B9862F0E949400DD2051F0E8010D0D15
:10018000111D80E00E9494008993C017D107C9F720
:1001900085B1E82AE5B88D2DDF91CF911F910F91A0
:1001A000FF90EF90DF900895CF93DF931F92CDB72C
:1001B000DEB721E0AE014F5F5F4F0E949B00898157
:1001C0000F90DF91CF910895CF93DF936FE081E09F
:1001D0000E94D400C82F6FE082E00E94D400D0E0DB
:1001E000DC2FCC27C82B8CEC91E00E945901CE016A
:1001F0000E949F01CD33D84611F16FE082E00E944A
:10020000D400C82F6FE081E00E94D400D0E0D82B4A
:100210008CEC91E00E945901CE010E949F018BEC71
:1002200091E00E9459018FEF91EE24E081509040BF
:100230002040E1F700C00000CD33D846F1F6DF9151
:10024000CF9108951F93CF93DF93142F95B1C1E001
:10025000D0E002C0CC0FDD1F8A95E2F78C2F80958D
:10026000982395B9862F8F730E949400812F0E9446
:10027000940085B1C82BC5B9DF91CF911F91089526
:100280001092C50087E68093C400E0ECF0E0808126
:100290008D7F808388E18093C10086E08093C200D7
:1002A0000895E0ECF0E0908195FFFDCF8093C600CB
:1002B00008950F931F93CF93FC018081882359F0F9
:1002C0008F01C0E00E945101CF5FF801EC0FF11DDA
:1002D00080818111F7CFCF911F910F910895CF9316
:1002E000DF93D82F89E2D89F812D112482958F70BA
:1002F000805D0E9451019DECD99FC12D1124C695AE
:10030000C695C695C99F912D11249695969596955B
:10031000990F892F880F880F980F8C2F891B805D6C
:100320000E945101CC0F8C2F880F880FC80F8D2F82
:100330008C1B805D0E945101DF91CF9108950F9336
:100340001F93CF93DF938C019C01329522952F70E0
:1003500023273F702327A7E4B3E00E944D02969520
:1003600087959695879596958795805D0E94510112
:100370009801369527953695279536952795A5ECBE
:10038000B0E20E944D02AC01529542954F70452754
:100390005F7045279A01ADECBCEC0E944D0296952A
:1003A000879596958795969587959C01220F331F83
:1003B000880F991F880F991F880F991F820F931F0D
:1003C0009A01281B390BC901805D0E9451019801D7
:1003D0003695279536952795ABE7B4E10E944D02F7
:1003E000AC01569547959A01ADECBCEC0E944D02CC
:1003F0009695879596958795969587959C01220F5A
:10040000331F880F991F880F991F880F991F820F1C
:10041000931F9A01281B390BC901805D0E9451016D
:100420009801ADECBCEC0E944D02EC01D695C7954D
:10043000D695C795D695C7959E010E944D02969573
:10044000879596958795969587959C01220F331FE2
:10045000880F991F880F991F880F991F820F931F6C
:100460009E01281B390BC901805D0E945101CE01FC
:10047000880F991FCC0FDD1FCC0FDD1FCC0FDD1FA8
:10048000C80FD91FC8018C1B9D0B805D0E945101B4
:10049000DF91CF911F910F910895A29FB001B39F5B
:1004A000C001A39F700D811D1124911DB29F700D7D
:0C04B000811D1124911D0895F894FFCFC8
:1004BC000D0A5374617274696E6720636F6E6E659A
:1004CC006374696F6E20746573742C20706C656135
:1004DC00736520776169742E2E2E000D0A496620F3
:1004EC007468652070726F6772616D20686F6C64E0
:1004FC007320686572652C20636865636B20796F67
:10050C00757220636F6E6E656374696F6E732E0007
:10051C000D0A52656164696E6720646174612066BE
:10052C00726F6D20494E545F47454E5F4346475F9F
:10053C00584C2028457870656374696E6720313695
:10054C0035293A20000D0A52656164696E67206492
:10055C006174612066726F6D20494E545F47454E41
:10056C005F5448535F585F584C202845787065633A
:10057C0074696E6720323135293A20000D0A2057F4
:10058C00484F5F414D5F495F434845434B202863CB
:10059C006F727265637420726573756C7420697305
:0A05AC002032363638353A200000C0
:00000001FF
