S0150000414443535F42616368656C6F722E7372656375
S11300000C9434000C9451000C9451000C94510045
S11300100C9451000C9451000C9451000C94510018
S11300200C9451000C9451000C9451000C94510008
S11300300C9451000C9451000C9451000C945100F8
S11300400C9451000C9451000C9451000C945100E8
S11300500C9451000C9451000C9451000C945100D8
S11300600C9451000C94510011241FBECFEFD8E022
S1130070DEBFCDBF12E0A0E0B1E0EEEBF8E002C0DD
S113008005900D92A831B107D9F722E0A8E1B2E0BA
S113009001C01D92A931B207E1F70E9471000C94CE
S11300A05D040C940000CF93DF9300D0CDB7DEB78E
S11300B022E0AE014F5F5F4F682F81E00E94720122
S11300C02A81022E000C330B322F22278981082E1D
S11300D0000C990B822B932B0F900F90DF91CF91F3
S11300E008950E9417020E94640180E091E00E943A
S11300F030028BE291E00E9430022FEF83ED90E317
S1130100215080409040E1F700C000000E94BB01F4
S11301106EE181E00E94AB01F82E80E691E00E943E
S113012030028F2D0E9446028EEB91E00E94300235
S113013062E282E00E94AB01F82E8FE891E00E9417
S113014030028F2D0E9446028EEB91E00E94300215
S11301500E944A010E94F60088E10E9453005C015B
S11301608AE10E9453006C018CE10E9453007C01DF
S1130170C5010E9416012B013C01C6010E94160113
S11301804B015C01C7010E9416016B017C018FEBDE
S113019091E00E94300285ED91E00E943002C3019B
S11301A0B2010E942403CB010E9430028CED91E045
S11301B00E943002C501B4010E942403CB010E94B5
S11301C0300283EE91E00E943002C701B6010E9422
S11301D02403CB010E9430022FE789EA93E02150E7
S11301E080409040E1F700C00000B6CF4091180273
S11301F04370440F440F440F406C60E181E00E945F
S1130200F90140E061E181E00E94F90140E062E12E
S113021081E00E94F90148E36EE181E00E94F90166
S113022040E063E181E00E94F9010895BC018091FE
S11302301802813089F018F08330D9F027C0072ED6
S1130240000C880B990B0E94550329E23CE54FE012
S11302505CE30E94B9030895072E000C880B990BE8
S11302600E94550329E23CE54FE85CE30E94B90390
S11302700895072E000C880B990B0E94550329E260
S11302803CE54FE85DE30E94B903089560E070E047
S1130290CB0108954CE760E282E00E94F90140E05E
S11302A061E282E00E94F90140E062E282E00E94A1
S11302B0F9014CE063E282E00E94F90140E064E26B
S11302C082E00E94F90108958FE284B987E085B93C
S11302D08FE58CBD08958EBD00000DB407FEFDCFE3
S11302E08EB50895DF92EF92FF920F931F93CF93F1
S11302F0DF938A01D22E6F736068823021F491E01B
S1130300921708F4606495B121E030E0790102C0ED
S1130310EE0CFF1C8A95E2F78E2D8095892385B912
S1130320862F0E946B01DD2051F0E8010D0D111D97
S113033080E00E946B018993C017D107C9F785B18A
S1130340E82AE5B88D2DDF91CF911F910F91FF9091
S1130350EF90DF900895CF93DF931F92CDB7DEB770
S113036021E0AE014F5F5F4F0E94720189810F90BF
S1130370DF91CF910895CF93DF936FE081E00E94E6
S1130380AB01C82F6FE082E00E94AB01D0E0DC2F0C
S1130390CC27C82B8AEE91E00E943002CE010E9445
S11303A07602CD33D84611F16FE082E00E94AB01B2
S11303B0C82F6FE081E00E94AB01D0E0D82B8AEE19
S11303C091E00E943002CE010E9476028EEB91E011
S11303D00E9430028FEF91EE24E081509040204043
S11303E0E1F700C00000CD33D846F1F6DF91CF919C
S11303F008951F93CF93DF93142F95B1C1E0D0E0FC
S113040002C0CC0FDD1F8A95E2F78C2F80959823CC
S113041095B9862F8F730E946B01812F0E946B0107
S113042085B1C82BC5B9DF91CF911F910895109262
S1130430C50087E68093C400E0ECF0E080818D7F06
S1130440808388E18093C10086E08093C200089590
S1130450E0ECF0E0908195FFFDCF8093C600089515
S11304600F931F93CF93FC018081882359F08F0150
S1130470C0E00E942802CF5FF801EC0FF11D8081DB
S11304808111F7CFCF911F910F910895CF93DF93EF
S1130490D82F89E2D89F812D112482958F70805D99
S11304A00E9428029DECD99FC12D1124C695C695A2
S11304B0C695C99F912D1124969596959695990F59
S11304C0892F880F880F980F8C2F891B805D0E94BD
S11304D02802CC0F8C2F880F880FC80F8D2F8C1BF0
S11304E0805D0E942802DF91CF9108950F931F939E
S11304F0CF93DF938C019C01329522952F70232793
S11305003F702327A7E4B3E00E944E049695879595
S11305109695879596958795805D0E942802980107
S1130520369527953695279536952795A5ECB0E20F
S11305300E944E04AC01529542954F7045275F705E
S113054045279A01ADECBCEC0E944E049695879524
S113055096958795969587959C01220F331F880F52
S1130560991F880F991F880F991F820F931F9A0153
S1130570281B390BC901805D0E9428029801369519
S1130580279536952795ABE7B4E10E944E04AC015C
S1130590569547959A01ADECBCEC0E944E04969595
S11305A0879596958795969587959C01220F331F7D
S11305B0880F991F880F991F880F991F820F931F07
S11305C09A01281B390BC901805D0E9428029801F9
S11305D0ADECBCEC0E944E04EC01D695C795D695C3
S11305E0C795D695C7959E010E944E04969587950A
S11305F096958795969587959C01220F331F880FB2
S1130600991F880F991F880F991F820F931F9E01AE
S1130610281B390BC901805D0E942802CE01880F76
S1130620991FCC0FDD1FCC0FDD1FCC0FDD1FC80FB2
S1130630D91FC8018C1B9D0B805D0E942802DF918D
S1130640CF911F910F9108950E94980388F09F57AE
S113065098F0B92F9927B751B0F0E1F0660F771FE2
S1130660881F991F1AF0BA95C9F714C0B13091F0D8
S11306700E94B203B1E008950C94B203672F782F5F
S11306808827B85F39F0B93FCCF38695779567959D
S1130690B395D9F73EF490958095709561957F4F09
S11306A08F4F9F4F0895E89409C097FB3EF49095AF
S11306B08095709561957F4F8F4F9F4F9923A9F037
S11306C0F92F96E9BB279395F695879577956795C6
S11306D0B795F111F8CFFAF4BB0F11F460FF1BC00A
S11306E06F5F7F4F8F4F9F4F16C0882311F096E99D
S11306F011C0772321F09EE8872F762F05C066234B
S113070071F096E8862F70E060E02AF09A95660F03
S1130710771F881FDAF7880F9695879597F90895BC
S113072057FD9058440F551F59F05F3F71F047959E
S1130730880F97FB991F61F09F3F79F08795089583
S1130740121613061406551FF2CF4695F1DF08C0A2
S1130750161617061806991FF1CF869571056105BF
S113076008940895E894BB2766277727CB0197F967
S113077008950E94CC030C943D040E942F0438F089
S11307800E94360420F0952311F00C9426040C9456
S11307902C0411240C94B3030E94900370F3959FCE
S11307A0C1F3950F50E0551F629FF001729FBB2764
S11307B0F00DB11D639FAA27F00DB11DAA1F649F00
S11307C06627B00DA11D661F829F2227B00DA11DB3
S11307D0621F739FB00DA11D621F839FA00D611D39
S11307E0221F749F3327A00D611D231F849F600D5A
S11307F0211D822F762F6A2F11249F5750409AF083
S1130800F1F088234AF0EE0FFF1FBB1F661F771F0E
S1130810881F91505040A9F79E3F510580F00C94D9
S113082026040C94B3035F3FE4F3983ED4F3869517
S113083077956795B795F795E7959F5FC1F7FE2B79
S1130840880F911D9695879597F9089597F99F6755
S113085080E870E060E008959FEF80EC0895002444
S11308600A941616170618060906089500240A9411
S113087012161306140605060895092E0394000C97
S113088011F4882352F0BB0F40F4BF2B11F460FF26
S113089004C06F5F7F4F8F4F9F4F0895A29FB00199
S11308A0B39FC001A39F700D811D1124911DB29FA0
S11108B0700D811D1124911D0895F894FFCF41
S11308BE0D0A5374617274696E6720636F6E6E6590
S11308CE6374696F6E20746573742C20706C65612B
S11308DE736520776169742E2E2E000D0A496620E9
S11308EE7468652070726F6772616D20686F6C64D6
S11308FE7320686572652C20636865636B20796F5D
S113090E757220636F6E6E656374696F6E732E00FD
S113091E0D0A52656164696E6720646174612066B4
S113092E726F6D204354524C5F5245473420284514
S113093E7870656374696E67203536293A20000D28
S113094E0A52656164696E6720646174612066721F
S113095E6F6D204354524C5F524547335F4D2028F0
S113096E457870656374696E672033293A20000DEB
S113097E0A52656164696E67204779726F73636F9B
S113098E70653A20000D0A67783A20000D0A6779DF
S113099E3A20000D0A677A3A20000D0A2057484F74
S11309AE5F414D5F495F434845434B2028636F7257
S11309BE7265637420726573756C7420697320326A
S10B09CE363638353A200000EA
S9030000FC
