:100000000C9434000C9451000C9451000C94510049
:100010000C9451000C9451000C9451000C9451001C
:100020000C9451000C9451000C9451000C9451000C
:100030000C9451000C9451000C9451000C945100FC
:100040000C9451000C9451000C9451000C945100EC
:100050000C9451000C9451000C9451000C945100DC
:100060000C9451000C94510011241FBECFEFD8E026
:10007000DEBFCDBF12E0A0E0B1E0E4EBF5E002C0EE
:1000800005900D92A831B107D9F722E0A8E1B2E0BE
:1000900001C01D92A831B207E1F70E946B000C94D9
:1000A000D8020C940000CF93DF9300D0CDB7DEB719
:1000B00022E0AE014F5F5F4F682F81E00E94170181
:1000C0008A8190E0982F88272981822B0F900F90AA
:1000D000DF91CF9108950E94BC010E94090180E048
:1000E00091E00E94D5018BE291E00E94D5012FEFB3
:1000F00083ED90E3215080409040E1F700C0000084
:100100000E9460016EE181E00E945001C82F80E6EC
:1001100091E00E94D5018C2F0E94EB018EEB91E0C3
:100120000E94D50162E282E00E945001C82F8FE850
:1001300091E00E94D5018C2F0E94EB018EEB91E0A3
:100140000E94D5010E94EF000E94D50088E10E9424
:1001500053007C018AE10E9453008C018CE10E94D3
:100160005300EC018FEB91E00E94D50185ED91E009
:100170000E94D501C7010E941B028CED91E00E94F4
:10018000D501C8010E941B0283EE91E00E94D501B7
:10019000CE010E941B022FE789EA93E021508040A4
:1001A0009040E1F700C00000D1CF40EC60E181E079
:1001B0000E949E0140E061E181E00E949E0140E0DA
:1001C00062E181E00E949E0148E36EE181E00E94CD
:1001D0009E0140E063E181E00E949E0108954CE7AA
:1001E00060E282E00E949E0140E061E282E00E94C3
:1001F0009E0140E062E282E00E949E014CE063E2E8
:1002000082E00E949E0140E064E282E00E949E0142
:1002100008958FE284B987E085B98FE58CBD089594
:100220008EBD00000DB407FEFDCF8EB50895DF92A0
:10023000EF92FF920F931F93CF93DF938A01D22EF9
:100240006F736068823021F491E0921708F4606463
:1002500095B121E030E0790102C0EE0CFF1C8A95D7
:10026000E2F78E2D8095892385B9862F0E94100193
:10027000DD2051F0E8010D0D111D80E00E941001FC
:100280008993C017D107C9F785B1E82AE5B88D2D44
:10029000DF91CF911F910F91FF90EF90DF90089524
:1002A000CF93DF931F92CDB7DEB721E0AE014F5F52
:1002B0005F4F0E94170189810F90DF91CF910895C0
:1002C000CF93DF936FE081E00E945001C82F6FE071
:1002D00082E00E945001D0E0DC2FCC27C82B8AEEB0
:1002E00091E00E94D501CE010E941B02CD33D84679
:1002F00011F16FE082E00E945001C82F6FE081E0B1
:100300000E945001D0E0D82B8AEE91E00E94D501E6
:10031000CE010E941B028EEB91E00E94D5018FEF6F
:1003200091EE24E0815090402040E1F700C00000B1
:10033000CD33D846F1F6DF91CF9108951F93CF9337
:10034000DF93142F95B1C1E0D0E002C0CC0FDD1FC8
:100350008A95E2F78C2F8095982395B9862F8F7315
:100360000E941001812F0E94100185B1C82BC5B9D0
:10037000DF91CF911F9108951092C50087E6809379
:10038000C400E0ECF0E080818D7F808388E1809381
:10039000C10086E08093C2000895E0ECF0E0908117
:1003A00095FFFDCF8093C60008950F931F93CF93C1
:1003B000FC018081882359F08F01C0E00E94CD01AB
:1003C000CF5FF801EC0FF11D80818111F7CFCF9144
:1003D0001F910F910895CF93DF93D82F89E2D89F73
:1003E000812D112482958F70805D0E94CD019DEC3E
:1003F000D99FC12D1124C695C695C695C99F912D2B
:100400001124969596959695990F892F880F880FA8
:10041000980F8C2F891B805D0E94CD01CC0F8C2FF3
:10042000880F880FC80F8D2F8C1B805D0E94CD0117
:10043000DF91CF9108950F931F93CF93DF938C019A
:100440009C01329522952F7023273F702327A7E424
:10045000B3E00E94C90296958795969587959695E3
:100460008795805D0E94CD01980136952795369538
:10047000279536952795A5ECB0E20E94C902AC01FC
:10048000529542954F7045275F7045279A01ADEC14
:10049000BCEC0E94C902969587959695879596958E
:1004A00087959C01220F331F880F991F880F991F72
:1004B000880F991F820F931F9A01281B390BC901BE
:1004C000805D0E94CD019801369527953695279538
:1004D000ABE7B4E10E94C902AC01569547959A0179
:1004E000ADECBCEC0E94C9029695879596958795D0
:1004F000969587959C01220F331F880F991F880FAF
:10050000991F880F991F820F931F9A01281B390B7F
:10051000C901805D0E94CD019801ADECBCEC0E9448
:10052000C902EC01D695C795D695C795D695C795BE
:100530009E010E94C90296958795969587959695F6
:1005400087959C01220F331F880F991F880F991FD1
:10055000880F991F820F931F9E01281B390BC90119
:10056000805D0E94CD01CE01880F991FCC0FDD1F49
:10057000CC0FDD1FCC0FDD1FC80FD91FC8018C1B8E
:100580009D0B805D0E94CD01DF91CF911F910F9156
:100590000895A29FB001B39FC001A39F700D811D5C
:1005A0001124911DB29F700D811D1124911D08957C
:0405B000F894FFCFED
:1005B4000D0A5374617274696E6720636F6E6E65A1
:1005C4006374696F6E20746573742C20706C65613C
:1005D400736520776169742E2E2E000D0A496620FA
:1005E4007468652070726F6772616D20686F6C64E7
:1005F4007320686572652C20636865636B20796F6E
:10060400757220636F6E6E656374696F6E732E000E
:100614000D0A52656164696E6720646174612066C5
:10062400726F6D204354524C5F5245473420284525
:100634007870656374696E67203536293A20000D39
:100644000A52656164696E67206461746120667230
:100654006F6D204354524C5F524547335F4D202801
:10066400457870656374696E672033293A20000DFC
:100674000A52656164696E67204779726F73636FAC
:1006840070653A20000D0A67783A20000D0A6779F0
:100694003A20000D0A677A3A20000D0A2057484F85
:1006A4005F414D5F495F434845434B2028636F7268
:1006B4007265637420726573756C7420697320327B
:0806C400363638353A200000FB
:00000001FF
