:100000000C9434000C9449000C9449000C94490061
:100010000C9449000C9449000C9449000C9449003C
:100020000C9449000C9449000C9449000C9449002C
:100030000C9449000C9449000C9449000C9449001C
:100040000C9449000C9449000C9449000C9449000C
:100050000C9449000C9449000C9449000C944900FC
:100060000C9449000C94490011241FBECFEFD8E036
:10007000DEBFCDBF11E0A0E0B1E0ECE6F4E002C0ED
:1000800005900D92AC3EB107D9F70E944B000C943D
:1000900034020C9400000E9418010E94830080E04A
:1000A00091E00E9431018BE291E00E9431012FEF3B
:1000B00083ED90E3215080409040E1F700C00000C4
:1000C0000E94DA006EE181E00E94CA00C82F80E63B
:1000D00091E00E9431018C2F0E9447018EEB91E04C
:1000E0000E94310162E282E00E94CA00C82F8FE8BC
:1000F00091E00E9431018C2F0E9447018EEB91E02C
:100100000E943101FFCF8FE284B987E085B98FE586
:100110008CBD08958EBD00000DB407FEFDCF8EB5D9
:100120000895DF92EF92FF920F931F93CF93DF9387
:100130008A01D22E6F736068823021F491E09217A9
:1001400008F4606495B121E030E0790102C0EE0C62
:10015000FF1C8A95E2F78E2D8095892385B9862F1D
:100160000E948A00DD2051F0E8010D0D111D80E094
:100170000E948A008993C017D107C9F785B1E82A80
:10018000E5B88D2DDF91CF911F910F91FF90EF90EA
:10019000DF900895CF93DF931F92CDB7DEB721E0B4
:1001A000AE014F5F5F4F0E94910089810F90DF91F8
:1001B000CF910895CF93DF936FE081E00E94CA0052
:1001C000C82F6FE082E00E94CA00D0E0DC2FCC276D
:1001D000C82B8FEB91E00E943101CE010E94770184
:1001E000CD33D84611F16FE082E00E94CA00C82FDB
:1001F0006FE081E00E94CA00D0E0D82B8FEB91E045
:100200000E943101CE010E9477018EEB91E00E94A5
:1002100031018FEF91EE24E0815090402040E1F7D2
:1002200000C00000CD33D846F1F6DF91CF9108959C
:100230001092C50087E68093C400E0ECF0E0808176
:100240008D7F808388E18093C10086E08093C20027
:100250000895E0ECF0E0908195FFFDCF8093C6001B
:1002600008950F931F93CF93FC018081882359F049
:100270008F01C0E00E942901CF5FF801EC0FF11D52
:1002800080818111F7CFCF911F910F910895CF9366
:10029000DF93D82F89E2D89F812D112482958F700A
:1002A000805D0E9429019DECD99FC12D1124C69526
:1002B000C695C695C99F912D1124969596959695AC
:1002C000990F892F880F880F980F8C2F891B805DBD
:1002D0000E942901CC0F8C2F880F880FC80F8D2FFB
:1002E0008C1B805D0E942901DF91CF9108950F93AF
:1002F0001F93CF93DF938C019C01329522952F7031
:1003000023273F702327A7E4B3E00E942502969598
:1003100087959695879596958795805D0E9429018A
:100320009801369527953695279536952795A5EC0E
:10033000B0E20E942502AC01529542954F704527CC
:100340005F7045279A01ADECBCEC0E9425029695A2
:10035000879596958795969587959C01220F331FD3
:10036000880F991F880F991F880F991F820F931F5D
:100370009A01281B390BC901805D0E94290198014F
:100380003695279536952795ABE7B4E10E9425026F
:10039000AC01569547959A01ADECBCEC0E94250244
:1003A0009695879596958795969587959C01220FAA
:1003B000331F880F991F880F991F880F991F820F6D
:1003C000931F9A01281B390BC901805D0E942901E6
:1003D0009801ADECBCEC0E942502EC01D695C795C6
:1003E000D695C795D695C7959E010E9425029695EC
:1003F000879596958795969587959C01220F331F33
:10040000880F991F880F991F880F991F820F931FBC
:100410009E01281B390BC901805D0E942901CE0174
:10042000880F991FCC0FDD1FCC0FDD1FCC0FDD1FF8
:10043000C80FD91FC8018C1B9D0B805D0E9429012C
:10044000DF91CF911F910F910895A29FB001B39FAB
:10045000C001A39F700D811D1124911DB29F700DCD
:0C046000811D1124911D0895F894FFCF18
:10046C000D0A5374617274696E6720636F6E6E65EA
:10047C006374696F6E20746573742C20706C656185
:10048C00736520776169742E2E2E000D0A49662043
:10049C007468652070726F6772616D20686F6C6430
:1004AC007320686572652C20636865636B20796FB7
:1004BC00757220636F6E6E656374696F6E732E0058
:1004CC000D0A52656164696E67206461746120660F
:1004DC00726F6D204354524C5F524547342028456F
:1004EC007870656374696E67203536293A20000D83
:1004FC000A52656164696E6720646174612066727A
:10050C006F6D204354524C5F524547335F4D20284A
:10051C00457870656374696E672033293A20000D45
:10052C000A2057484F5F414D5F495F434845434B55
:10053C002028636F727265637420726573756C74B6
:0C054C002069732032363638353A200022
:00000001FF
