S0150000414443535F42616368656C6F722E7372656375
S11300000C9434000C9449000C9449000C9449005D
S11300100C9449000C9449000C9449000C94490038
S11300200C9449000C9449000C9449000C94490028
S11300300C9449000C9449000C9449000C94490018
S11300400C9449000C9449000C9449000C94490008
S11300500C9449000C9449000C9449000C944900F8
S11300600C9449000C94490011241FBECFEFD8E032
S1130070DEBFCDBF11E0A0E0B1E0E0EDF1E002C0F1
S113008005900D92A231B107D9F70E944B000C9450
S1130090E6000C9400000E9487000E94690068E159
S11300A081E00E947200C82F80E091E00E94A000CD
S11300B08C2F0E94B60081E191E00E94A0002FEFF6
S11300C083ED90E3215080409040E1F700C00000B0
S11300D0E6CF8EE284B980E185B986E083B981E513
S11300E08CBD089593B121E030E002C0220F331F8C
S11300F08A95E2F7822F8095982393B96F7360688D
S11301006EBD0DB407FEFDCF8EB523B908951092D0
S1130110C50087E68093C400E0ECF0E080818D7F29
S1130120808388E18093C10086E08093C2000895B3
S1130130E0ECF0E0908195FFFDCF8093C600089538
S11301400F931F93CF93FC018081882359F08F0173
S1130150C0E00E949800CF5FF801EC0FF11D808190
S11301608111F7CFCF911F910F910895CF93DF9312
S1130170D82F89E2D89F812D112482958F70805DBC
S11301800E9498009DECD99FC12D1124C695C69557
S1130190C695C99F912D1124969596959695990F7C
S11301A0892F880F880F980F8C2F891B805D0E94E0
S11301B09800CC0F8C2F880F880FC80F8D2F8C1BA5
S11301C0805D0E949800DF91CF910895F894FFCF4D
S11301D00D0A526563696576656420627974653ACF
S10501E02000F9
S9030000FC
