S0150000414443535F42616368656C6F722E7372656375
S11300000C9434000C9451000C9451000C94510045
S11300100C9451000C9451000C9451000C94510018
S11300200C9451000C9451000C9451000C94510008
S11300300C9451000C9451000C9451000C945100F8
S11300400C9451000C9451000C9451000C945100E8
S11300500C9451000C9451000C9451000C945100D8
S11300600C9451000C94510011241FBECFEFD8E022
S1130070DEBFCDBF11E0A0E0B1E0E0E5F5E002C0F5
S113008005900D92AE3EB107D9F721E0AEEEB1E096
S113009001C01D92AF3EB207E1F70E9453000C94D9
S11300A0A6020C9400000E948A010E94D70081E0FD
S11300B091E00E94A3018CE291E00E94A3012FEF42
S11300C083ED90E3215080409040E1F700C00000B0
S11300D00E942E016EE181E00E941E01C82F81E67C
S11300E091E00E94A3018C2F0E94B9018FEB91E053
S11300F00E94A30162E282E00E941E01C82F80E9EF
S113010091E00E94A3018C2F0E94B9018FEB91E032
S11301100E94A3010E94AF000E948F00FFCF409174
S1130120EE014370440F440F440F406C60E181E0E2
S11301300E946C0140E061E181E00E946C0140E0BA
S113014062E181E00E946C0148E36EE181E00E947B
S11301506C0140E063E181E00E946C0108954CE78A
S113016060E282E00E946C01809100018C3031F0E9
S1130170803131F0883031F440E205C040E403C0FE
S113018040E601C040E061E282E00E946C0140E090
S113019062E282E00E946C014CE063E282E00E9431
S11301A06C0140E064E282E00E946C0108958FE2F9
S11301B084B987E085B98FE58CBD08958EBD0000B4
S11301C00DB407FEFDCF8EB50895DF92EF92FF9236
S11301D00F931F93CF93DF938A01D22E6F736068BE
S11301E0823021F491E0921708F4606495B121E023
S11301F030E0790102C0EE0CFF1C8A95E2F78E2DE7
S11302008095892385B9862F0E94DE00DD2051F078
S1130210E8010D0D111D80E00E94DE008993C017D6
S1130220D107C9F785B1E82AE5B88D2DDF91CF91C3
S11302301F910F91FF90EF90DF900895CF93DF937C
S11302401F92CDB7DEB721E0AE014F5F5F4F0E9432
S1130250E50089810F90DF91CF910895CF93DF93CB
S11302606FE081E00E941E01C82F6FE082E00E94CF
S11302701E01D0E0DC2FCC27C82B80EC91E00E943B
S1130280A301CE010E94E901CD33D84611F16FE0FC
S113029082E00E941E01C82F6FE081E00E941E01CF
S11302A0D0E0D82B80EC91E00E94A301CE010E9403
S11302B0E9018FEB91E00E94A3018FEF91EE24E01E
S11302C0815090402040E1F700C00000CD33D84673
S11302D0F1F6DF91CF9108951F93CF93DF93142FFD
S11302E095B1C1E0D0E002C0CC0FDD1F8A95E2F7E2
S11302F08C2F8095982395B9862F8F730E94DE00EA
S1130300812F0E94DE0085B1C82BC5B9DF91CF9142
S11303101F9108951092C50087E68093C400E0EC15
S1130320F0E080818D7F808388E18093C10086E046
S11303308093C2000895E0ECF0E0908195FFFDCF3A
S11303408093C60008950F931F93CF93FC0180817F
S1130350882359F08F01C0E00E949B01CF5FF80110
S1130360EC0FF11D80818111F7CFCF911F910F9177
S11303700895CF93DF93D82F89E2D89F812D11243C
S113038082958F70805D0E949B019DECD99FC12D49
S11303901124C695C695C695C99F912D112496958D
S11303A096959695990F892F880F880F980F8C2F03
S11303B0891B805D0E949B01CC0F8C2F880F880FB6
S11303C0C80F8D2F8C1B805D0E949B01DF91CF9104
S11303D008950F931F93CF93DF938C019C01329563
S11303E022952F7023273F702327A7E4B3E00E94B0
S11303F09702969587959695879596958795805DAE
S11304000E949B0198013695279536952795369538
S11304102795A5ECB0E20E949702AC015295429553
S11304204F7045275F7045279A01ADECBCEC0E94E4
S113043097029695879596958795969587959C01AD
S1130440220F331F880F991F880F991F880F991F38
S1130450820F931F9A01281B390BC901805D0E94EA
S11304609B0198013695279536952795ABE7B4E11E
S11304700E949702AC01569547959A01ADECBCECED
S11304800E94970296958795969587959695879558
S11304909C01220F331F880F991F880F991F880F03
S11304A0991F820F931F9A01281B390BC901805D84
S11304B00E949B019801ADECBCEC0E949702EC01F8
S11304C0D695C795D695C795D695C7959E010E9492
S11304D097029695879596958795969587959C010D
S11304E0220F331F880F991F880F991F880F991F98
S11304F0820F931F9E01281B390BC901805D0E9446
S11305009B01CE01880F991FCC0FDD1FCC0FDD1F7F
S1130510CC0FDD1FC80FD91FC8018C1B9D0B805D3C
S11305200E949B01DF91CF911F910F910895A29F8B
S1130530B001B39FC001A39F700D811D1124911DB3
S1130540B29F700D811D1124911D0895F894FFCF61
S1130550040D0A5374617274696E6720636F6E6E62
S1130560656374696F6E20746573742C20706C6598
S113057061736520776169742E2E2E000D0A496619
S1130580207468652070726F6772616D20686F6C8B
S1130590647320686572652C20636865636B2079D9
S11305A06F757220636F6E6E656374696F6E732E00
S11305B0000D0A52656164696E672064617461208C
S11305C066726F6D204354524C5F52454734202865
S11305D0457870656374696E67203536293A200062
S11305E00D0A52656164696E6720646174612066F6
S11305F0726F6D204354524C5F524547335F4D2018
S113060028457870656374696E672033293A200041
S11306100D0A2057484F5F414D5F495F43484543AA
S11306204B2028636F727265637420726573756CF6
S1110630742069732032363638353A200000C3
S9030000FC
