S0150000414443535F42616368656C6F722E7372656375
S11300000C9434000C9449000C9449000C9449005D
S11300100C9449000C9449000C9449000C94490038
S11300200C9449000C9449000C9449000C94490028
S11300300C9449000C9449000C9449000C94490018
S11300400C9449000C9449000C9449000C94490008
S11300500C9449000C9449000C9449000C944900F8
S11300600C9449000C94490011241FBECFEFD8E032
S1130070DEBFCDBF11E0A0E0B1E0EEE4F4E002C0E9
S113008005900D92A03EB107D9F70E944B000C9445
S113009025020C9400000E9409010E948D0080E05A
S11300A091E00E9422018BE291E00E9422012FEF55
S11300B083ED90E3215080409040E1F700C00000C0
S11300C00E94D10045EA66E081E00E94B60047ED57
S11300D067E081E00E94B60066E081E00E9496003D
S11300E0C82F80E691E00E9422018C2F0E943801E3
S11300F08BEC91E00E94220167E081E00E9496006F
S1130100C82F85E991E00E9422018C2F0E943801BA
S11301108BEC91E00E942201FFCF8EE284B986E14C
S113012085B986E083B98FE58CBD089543B121E09C
S113013030E0F90102C0EE0FFF1F8A95E2F7CF010C
S11301402E2F2095422343B9EFE9FFE03197F1F7D1
S113015000C000006F7360686EBD00000DB407FE40
S1130160FDCF93B1892B83B98EB5089553B121E0A6
S113017030E0F90102C0EE0FFF1F8A95E2F7CF01CC
S11301802E2F2095522353B96F736EBD0DB407FE05
S1130190FDCF4EBD0DB407FEFDCF93B1892B83B9BE
S11301A00895CF93DF936FE081E00E949600C82FFB
S11301B06FE082E00E9496002C2F30E0322F22273D
S11301C0282B2D33384611F16FE082E00E9496000F
S11301D0C82F6FE081E00E949600D0E0D82B8CEC11
S11301E091E00E942201CE010E9468018BEC91E013
S11301F00E9422019FEF21EE84E091502040804034
S1130200E1F700C00000CD33D846F1F6DF91CF917D
S113021008951092C50087E68093C400E0ECF0E0F6
S113022080818D7F808388E18093C10086E0809304
S1130230C2000895E0ECF0E0908195FFFDCF80933B
S1130240C60008950F931F93CF93FC0180818823E8
S113025059F08F01C0E00E941A01CF5FF801EC0F42
S1130260F11D80818111F7CFCF911F910F910895D6
S1130270CF93DF93D82F89E2D89F812D11248295C3
S11302808F70805D0E941A019DECD99FC12D1124AD
S1130290C695C695C695C99F912D11249695969598
S11302A09695990F892F880F880F980F8C2F891B8B
S11302B0805D0E941A01CC0F8C2F880F880FC80F05
S11302C08D2F8C1B805D0E941A01DF91CF910895C0
S11302D00F931F93CF93DF938C019C01329522954A
S11302E02F7023273F702327A7E4B3E00E94160250
S11302F0969587959695879596958795805D0E94A6
S11303001A019801369527953695279536952795A0
S1130310A5ECB0E20E941602AC01529542954F70D2
S113032045275F7045279A01ADECBCEC0E9416028C
S11303309695879596958795969587959C01220F16
S1130340331F880F991F880F991F880F991F820FD9
S1130350931F9A01281B390BC901805D0E941A0161
S113036098013695279536952795ABE7B4E10E9419
S11303701602AC01569547959A01ADECBCEC0E946F
S113038016029695879596958795969587959C01DF
S1130390220F331F880F991F880F991F880F991FE9
S11303A0820F931F9A01281B390BC901805D0E949B
S11303B01A019801ADECBCEC0E941602EC01D69532
S11303C0C795D695C795D695C7959E010E941602E6
S11303D09695879596958795969587959C01220F76
S11303E0331F880F991F880F991F880F991F820F39
S11303F0931F9E01281B390BC901805D0E941A01BD
S1130400CE01880F991FCC0FDD1FCC0FDD1FCC0F41
S1130410DD1FC80FD91FC8018C1B9D0B805D0E9476
S11304201A01DF91CF911F910F910895A29FB001FE
S1130430B39FC001A39F700D811D1124911DB29F14
S1110440700D811D1124911D0895F894FFCFB5
S113044E0D0A5374617274696E6720636F6E6E6504
S113045E6374696F6E20746573742C20706C65619F
S113046E736520776169742E2E2E000D0A4966205D
S113047E7468652070726F6772616D20686F6C644A
S113048E7320686572652C20636865636B20796FD1
S113049E757220636F6E6E656374696F6E732E0072
S11304AE0D0A52656164696E672064617461206629
S11304BE726F6D20494E545F47454E5F4346475F0A
S11304CE584C2028457870656374696E6720313600
S11304DE35293A20000D0A52656164696E672064FD
S11304EE6174612066726F6D20494E545F47454EAC
S11304FE5F5448535F585F584C20284578706563A5
S113050E74696E6720323135293A20000D0A20575E
S113051E484F5F414D5F495F434845434B3A200086
S9030000FC
