:100000000C9434000C9449000C9449000C94490061
:100010000C9449000C9449000C9449000C9449003C
:100020000C9449000C9449000C9449000C9449002C
:100030000C9449000C9449000C9449000C9449001C
:100040000C9449000C9449000C9449000C9449000C
:100050000C9449000C9449000C9449000C944900FC
:100060000C9449000C94490011241FBECFEFD8E036
:10007000DEBFCDBF11E0A0E0B1E0ECECF1E002C0EA
:1000800005900D92A231B107D9F70E944B000C9454
:10009000E4000C9400000E9485000E94690068E161
:1000A00081E00E947000C82F80E091E00E949E00D5
:1000B0008C2F0E94B40081E191E00E949E002FEFFE
:1000C00083ED90E3215080409040E1F700C00000B4
:1000D000E6CF8EE284B986E185B981E58CBD0895CD
:1000E00095B121E030E002C0220F331F8A95E2F77C
:1000F000822F8095982395B96F7360686EBD0DB49B
:1001000007FEFDCF8EB525B908951092C50087E68C
:100110008093C400E0ECF0E080818D7F808388E1F3
:100120008093C10086E08093C2000895E0ECF0E087
:10013000908195FFFDCF8093C60008950F931F9384
:10014000CF93FC018081882359F08F01C0E00E9489
:100150009600CF5FF801EC0FF11D80818111F7CF80
:10016000CF911F910F910895CF93DF93D82F89E2FC
:10017000D89F812D112482958F70805D0E949600FA
:100180009DECD99FC12D1124C695C695C695C99FD2
:10019000912D1124969596959695990F892F880FF4
:1001A000880F980F8C2F891B805D0E949600CC0FC2
:1001B0008C2F880F880FC80F8D2F8C1B805D0E949D
:0C01C0009600DF91CF910895F894FFCFD6
:1001CC000D0A526563696576656420627974653AD7
:0201DC00200001
:00000001FF
