S0150000414443535F42616368656C6F722E7372656375
S11300000C9434000C9449000C9449000C9449005D
S11300100C9449000C9449000C9449000C94490038
S11300200C9449000C9449000C9449000C94490028
S11300300C9449000C9449000C9449000C94490018
S11300400C9449000C9449000C9449000C94490008
S11300500C9449000C9449000C9449000C944900F8
S11300600C9449000C94490011241FBECFEFD8E032
S1130070DEBFCDBF11E0A0E0B1E0E6E7F7E002C0EB
S113008005900D92AC3EB107D9F70E9463000C9421
S1130090B9030C940000CF93DF9300D0CDB7DEB743
S11300A022E0AE014F5F5F4F682F81E00E94FD00A8
S11300B08A8190E0982F88272981822B0F900F90B6
S11300C0DF91CF9108950E94A2010E94EF0080E089
S11300D091E00E94BB018BE291E00E94BB012FEFF3
S11300E083ED90E3215080409040E1F700C0000090
S11300F00E9446016EE181E00E943601C82F80E62D
S113010091E00E94BB018C2F0E94D1018EEB91E003
S11301100E94BB0162E282E00E943601C82F8FE890
S113012091E00E94BB018C2F0E94D1018EEB91E0E3
S11301300E94BB010E94D5000E94AE0088E10E948B
S11301404B000E94C8008AE10E944B000E94C80034
S11301508CE10E944B000E94C800F0CF40EC60E1AB
S113016081E00E94840140E061E181E00E94840119
S113017040E062E181E00E94840148E36EE181E0B5
S11301800E94840140E063E181E00E9484010895BB
S1130190BC01990F880B990B0E94B10229E23CE53E
S11301A04FE05CE30E94EC0208954CE760E282E0D9
S11301B00E94840140E061E282E00E94840140E008
S11301C062E282E00E9484014CE063E282E00E94E9
S11301D0840140E064E282E00E94840108958FE299
S11301E084B987E085B98FE58CBD08958EBD000084
S11301F00DB407FEFDCF8EB50895DF92EF92FF9206
S11302000F931F93CF93DF938A01D22E6F7360688D
S1130210823021F491E0921708F4606495B121E0F2
S113022030E0790102C0EE0CFF1C8A95E2F78E2DB6
S11302308095892385B9862F0E94F600DD2051F030
S1130240E8010D0D111D80E00E94F6008993C0178E
S1130250D107C9F785B1E82AE5B88D2DDF91CF9193
S11302601F910F91FF90EF90DF900895CF93DF934C
S11302701F92CDB7DEB721E0AE014F5F5F4F0E9402
S1130280FD0089810F90DF91CF910895CF93DF9383
S11302906FE081E00E943601C82F6FE082E00E9487
S11302A03601D0E0DC2FCC27C82B8FEB91E00E94E5
S11302B0BB01CE010E940102CD33D84611F16FE09B
S11302C082E00E943601C82F6FE081E00E9436016F
S11302D0D0E0D82B8FEB91E00E94BB01CE010E94AD
S11302E001028EEB91E00E94BB018FEF91EE24E0BE
S11302F0815090402040E1F700C00000CD33D84643
S1130300F1F6DF91CF9108951F93CF93DF93142FCC
S113031095B1C1E0D0E002C0CC0FDD1F8A95E2F7B1
S11303208C2F8095982395B9862F8F730E94F600A1
S1130330812F0E94F60085B1C82BC5B9DF91CF91FA
S11303401F9108951092C50087E68093C400E0ECE5
S1130350F0E080818D7F808388E18093C10086E016
S11303608093C2000895E0ECF0E0908195FFFDCF0A
S11303708093C60008950F931F93CF93FC0180814F
S1130380882359F08F01C0E00E94B301CF5FF801C8
S1130390EC0FF11D80818111F7CFCF911F910F9147
S11303A00895CF93DF93D82F89E2D89F812D11240C
S11303B082958F70805D0E94B3019DECD99FC12D01
S11303C01124C695C695C695C99F912D112496955D
S11303D096959695990F892F880F880F980F8C2FD3
S11303E0891B805D0E94B301CC0F8C2F880F880F6E
S11303F0C80F8D2F8C1B805D0E94B301DF91CF91BC
S113040008950F931F93CF93DF938C019C01329532
S113041022952F7023273F702327A7E4B3E00E947F
S1130420AA03969587959695879596958795805D69
S11304300E94B301980136952795369527953695F0
S11304402795A5ECB0E20E94AA03AC01529542950F
S11304504F7045275F7045279A01ADECBCEC0E94B4
S1130460AA039695879596958795969587959C0169
S1130470220F331F880F991F880F991F880F991F08
S1130480820F931F9A01281B390BC901805D0E94BA
S1130490B30198013695279536952795ABE7B4E1D6
S11304A00E94AA03AC01569547959A01ADECBCECA9
S11304B00E94AA0396958795969587959695879514
S11304C09C01220F331F880F991F880F991F880FD3
S11304D0991F820F931F9A01281B390BC901805D54
S11304E00E94B3019801ADECBCEC0E94AA03EC019C
S11304F0D695C795D695C795D695C7959E010E9462
S1130500AA039695879596958795969587959C01C8
S1130510220F331F880F991F880F991F880F991F67
S1130520820F931F9E01281B390BC901805D0E9415
S1130530B301CE01880F991FCC0FDD1FCC0FDD1F37
S1130540CC0FDD1FC80FD91FC8018C1B9D0B805D0C
S11305500E94B301DF91CF911F910F910895E89408
S113056009C097FB3EF490958095709561957F4FF7
S11305708F4F9F4F9923A9F0F92F96E9BB279395A5
S1130580F695879577956795B795F111F8CFFAF4B5
S1130590BB0F11F460FF1BC06F5F7F4F8F4F9F4FE6
S11305A016C0882311F096E911C0772321F09EE844
S11305B0872F762F05C0662371F096E8862F70E0AA
S11305C060E02AF09A95660F771F881FDAF7880F84
S11305D09695879597F908950E94FF020C947003ED
S11305E00E94620338F00E94690320F0952311F001
S11305F00C9459030C945F0311240C94A4030E94DB
S1130600810370F3959FC1F3950F50E0551F629FCE
S1130610F001729FBB27F00DB11D639FAA27F00D57
S1130620B11DAA1F649F6627B00DA11D661F829F7E
S11306302227B00DA11D621F739FB00DA11D621F63
S1130640839FA00D611D221F749F3327A00D611D80
S1130650231F849F600D211D822F762F6A2F112462
S11306609F5750409AF0F1F088234AF0EE0FFF1F95
S1130670BB1F661F771F881F91505040A9F79E3FEC
S1130680510580F00C9459030C94A4035F3FE4F3E8
S1130690983ED4F3869577956795B795F795E79542
S11306A09F5FC1F7FE2B880F911D9695879597F94B
S11306B0089597F99F6780E870E060E008959FEFE0
S11306C080EC089500240A941616170618060906E5
S11306D0089500240A9412161306140605060895B4
S11306E0092E0394000C11F4882352F0BB0F40F43C
S11306F0BF2B11F460FF04C06F5F7F4F8F4F9F4F7C
S1130700089557FD9058440F551F59F05F3F71F0FD
S11307104795880F97FB991F61F09F3F79F0879564
S11307200895121613061406551FF2CF4695F1DFED
S113073008C0161617061806991FF1CF869571057D
S1130740610508940895E894BB2766277727CB01B1
S113075097F90895A29FB001B39FC001A39F700DA4
S1130760811D1124911DB29F700D811D1124911DB5
S10907700895F894FFCF88
S11307760D0A5374617274696E6720636F6E6E65D9
S11307866374696F6E20746573742C20706C656174
S1130796736520776169742E2E2E000D0A49662032
S11307A67468652070726F6772616D20686F6C641F
S11307B67320686572652C20636865636B20796FA6
S11307C6757220636F6E6E656374696F6E732E0047
S11307D60D0A52656164696E6720646174612066FE
S11307E6726F6D204354524C5F524547342028455E
S11307F67870656374696E67203536293A20000D72
S11308060A52656164696E67206461746120667268
S11308166F6D204354524C5F524547335F4D202839
S1130826457870656374696E672033293A20000D34
S11308360A2057484F5F414D5F495F434845434B44
S11308462028636F727265637420726573756C74A5
S10F08562069732032363638353A200011
S9030000FC
